{
  "transactions": [
    {
      "hash": "0xd582aa3fa11ab84fc1092d53e594289758e4012590c29c5a800b9e39a6b6a1a4",
      "transactionType": "CALL",
      "contractName": "BondPriceOracle",
      "contractAddress": "0xacc9099c4e9f797f1b96559007bb2a0e0a20368a",
      "function": "updatePrice(uint256)",
      "arguments": [
        "98000000000"
      ],
      "transaction": {
        "from": "0x0350e6a031e9a11cf6bc725e8f36fd72b7a3b981",
        "to": "0xacc9099c4e9f797f1b96559007bb2a0e0a20368a",
        "gas": "0xb067",
        "value": "0x0",
        "input": "0x8d6cc56d00000000000000000000000000000000000000000000000000000016d1415400",
        "nonce": "0x98",
        "chainId": "0xaa36a7"
      },
      "additionalContracts": [],
      "isFixedGasLimit": false
    },
    {
      "hash": "0x71dc3515b3411e2d20540bcd0b3f94909cceac18bed4933d2111ac98489001e2",
      "transactionType": "CALL",
      "contractName": null,
      "contractAddress": "0x7b2a668e288bc8f668b709ac5558b851cf54b113",
      "function": "grantKYC(address)",
      "arguments": [
        "0x0350e6A031E9a11cf6bC725E8f36FD72b7A3b981"
      ],
      "transaction": {
        "from": "0x0350e6a031e9a11cf6bc725e8f36fd72b7a3b981",
        "to": "0x7b2a668e288bc8f668b709ac5558b851cf54b113",
        "gas": "0xaf8d",
        "value": "0x0",
        "input": "0xd9ca93ff0000000000000000000000000350e6a031e9a11cf6bc725e8f36fd72b7a3b981",
        "nonce": "0x99",
        "chainId": "0xaa36a7"
      },
      "additionalContracts": [],
      "isFixedGasLimit": false
    },
    {
      "hash": "0x3a02133764e065d7a3379e38deede31fac1240927f130b441cf00d76c898e735",
      "transactionType": "CALL",
      "contractName": null,
      "contractAddress": "0x7b2a668e288bc8f668b709ac5558b851cf54b113",
      "function": "grantKYC(address)",
      "arguments": [
        "0x3786c0952F33814A96F57a1Ee75c265E5F80e247"
      ],
      "transaction": {
        "from": "0x0350e6a031e9a11cf6bc725e8f36fd72b7a3b981",
        "to": "0x7b2a668e288bc8f668b709ac5558b851cf54b113",
        "gas": "0xaf8d",
        "value": "0x0",
        "input": "0xd9ca93ff0000000000000000000000003786c0952f33814a96f57a1ee75c265e5f80e247",
        "nonce": "0x9a",
        "chainId": "0xaa36a7"
      },
      "additionalContracts": [],
      "isFixedGasLimit": false
    },
    {
      "hash": "0x375683be1213208ed580813e0cbe630438b163bcf0415e69fded78401adafedb",
      "transactionType": "CALL",
      "contractName": null,
      "contractAddress": "0x7b2a668e288bc8f668b709ac5558b851cf54b113",
      "function": "grantKYC(address)",
      "arguments": [
        "0x2175633Fd0bd9D172ee36A6755e8F6A99301a347"
      ],
      "transaction": {
        "from": "0x0350e6a031e9a11cf6bc725e8f36fd72b7a3b981",
        "to": "0x7b2a668e288bc8f668b709ac5558b851cf54b113",
        "gas": "0xaf8d",
        "value": "0x0",
        "input": "0xd9ca93ff0000000000000000000000002175633fd0bd9d172ee36a6755e8f6a99301a347",
        "nonce": "0x9b",
        "chainId": "0xaa36a7"
      },
      "additionalContracts": [],
      "isFixedGasLimit": false
    },
    {
      "hash": "0x6cb7dd5fb5b949f9648ee0b458a235ab35d8e3c10bd84b698f8ff294c56754a9",
      "transactionType": "CALL",
      "contractName": null,
      "contractAddress": "0x7b2a668e288bc8f668b709ac5558b851cf54b113",
      "function": "grantKYC(address)",
      "arguments": [
        "0x14038cB88dc2CB86A40e1f0B79E5898aAacc1935"
      ],
      "transaction": {
        "from": "0x0350e6a031e9a11cf6bc725e8f36fd72b7a3b981",
        "to": "0x7b2a668e288bc8f668b709ac5558b851cf54b113",
        "gas": "0xaf8d",
        "value": "0x0",
        "input": "0xd9ca93ff00000000000000000000000014038cb88dc2cb86a40e1f0b79e5898aaacc1935",
        "nonce": "0x9c",
        "chainId": "0xaa36a7"
      },
      "additionalContracts": [],
      "isFixedGasLimit": false
    },
    {
      "hash": "0x404185b5bf35ec0600863048be38d35ab82dac8b2d8cf5bd707b116c27e6231a",
      "transactionType": "CALL",
      "contractName": null,
      "contractAddress": "0x38c56c2e22d316249bdcf8c521fef65d5d8573b8",
      "function": "grantKYC(address)",
      "arguments": [
        "0x0350e6A031E9a11cf6bC725E8f36FD72b7A3b981"
      ],
      "transaction": {
        "from": "0x0350e6a031e9a11cf6bc725e8f36fd72b7a3b981",
        "to": "0x38c56c2e22d316249bdcf8c521fef65d5d8573b8",
        "gas": "0xaf8d",
        "value": "0x0",
        "input": "0xd9ca93ff0000000000000000000000000350e6a031e9a11cf6bc725e8f36fd72b7a3b981",
        "nonce": "0x9d",
        "chainId": "0xaa36a7"
      },
      "additionalContracts": [],
      "isFixedGasLimit": false
    },
    {
      "hash": "0x78a1fe73d04af32efc73e93db8ec27a32a7420e03679148ddf9fad113d2ad14a",
      "transactionType": "CALL",
      "contractName": null,
      "contractAddress": "0x38c56c2e22d316249bdcf8c521fef65d5d8573b8",
      "function": "grantKYC(address)",
      "arguments": [
        "0x3786c0952F33814A96F57a1Ee75c265E5F80e247"
      ],
      "transaction": {
        "from": "0x0350e6a031e9a11cf6bc725e8f36fd72b7a3b981",
        "to": "0x38c56c2e22d316249bdcf8c521fef65d5d8573b8",
        "gas": "0xaf8d",
        "value": "0x0",
        "input": "0xd9ca93ff0000000000000000000000003786c0952f33814a96f57a1ee75c265e5f80e247",
        "nonce": "0x9e",
        "chainId": "0xaa36a7"
      },
      "additionalContracts": [],
      "isFixedGasLimit": false
    },
    {
      "hash": "0x45d88ed5a455938c3bcde454263e0e72c5ca1eedf7ac5b8333389c7122ca270d",
      "transactionType": "CALL",
      "contractName": null,
      "contractAddress": "0x38c56c2e22d316249bdcf8c521fef65d5d8573b8",
      "function": "grantKYC(address)",
      "arguments": [
        "0x2175633Fd0bd9D172ee36A6755e8F6A99301a347"
      ],
      "transaction": {
        "from": "0x0350e6a031e9a11cf6bc725e8f36fd72b7a3b981",
        "to": "0x38c56c2e22d316249bdcf8c521fef65d5d8573b8",
        "gas": "0xaf8d",
        "value": "0x0",
        "input": "0xd9ca93ff0000000000000000000000002175633fd0bd9d172ee36a6755e8f6a99301a347",
        "nonce": "0x9f",
        "chainId": "0xaa36a7"
      },
      "additionalContracts": [],
      "isFixedGasLimit": false
    },
    {
      "hash": "0xbf845459af7f99eefba7448c033287278f3667cdff902d36fe58abe6d7457c15",
      "transactionType": "CALL",
      "contractName": null,
      "contractAddress": "0x38c56c2e22d316249bdcf8c521fef65d5d8573b8",
      "function": "grantKYC(address)",
      "arguments": [
        "0x14038cB88dc2CB86A40e1f0B79E5898aAacc1935"
      ],
      "transaction": {
        "from": "0x0350e6a031e9a11cf6bc725e8f36fd72b7a3b981",
        "to": "0x38c56c2e22d316249bdcf8c521fef65d5d8573b8",
        "gas": "0xaf8d",
        "value": "0x0",
        "input": "0xd9ca93ff00000000000000000000000014038cb88dc2cb86a40e1f0b79e5898aaacc1935",
        "nonce": "0xa0",
        "chainId": "0xaa36a7"
      },
      "additionalContracts": [],
      "isFixedGasLimit": false
    },
    {
      "hash": "0x7b599288ba60b131b089aa1395164da92a364a59f904a4438dd2aa008a9f4bed",
      "transactionType": "CALL",
      "contractName": null,
      "contractAddress": "0x38c56c2e22d316249bdcf8c521fef65d5d8573b8",
      "function": "mint(address,uint256)",
      "arguments": [
        "0x0350e6A031E9a11cf6bC725E8f36FD72b7A3b981",
        "100000000000"
      ],
      "transaction": {
        "from": "0x0350e6a031e9a11cf6bc725e8f36fd72b7a3b981",
        "to": "0x38c56c2e22d316249bdcf8c521fef65d5d8573b8",
        "gas": "0x1b2d5",
        "value": "0x0",
        "input": "0x40c10f190000000000000000000000000350e6a031e9a11cf6bc725e8f36fd72b7a3b981000000000000000000000000000000000000000000000000000000174876e800",
        "nonce": "0xa1",
        "chainId": "0xaa36a7"
      },
      "additionalContracts": [],
      "isFixedGasLimit": false
    },
    {
      "hash": "0xfcc708371c089c5ac3410cae6fe07cbd6c6ba743a617a48db2953d2efd5dbb1b",
      "transactionType": "CALL",
      "contractName": null,
      "contractAddress": "0x7b2a668e288bc8f668b709ac5558b851cf54b113",
      "function": "mint(address,uint256)",
      "arguments": [
        "0x0350e6A031E9a11cf6bC725E8f36FD72b7A3b981",
        "100000000000000000000"
      ],
      "transaction": {
        "from": "0x0350e6a031e9a11cf6bc725e8f36fd72b7a3b981",
        "to": "0x7b2a668e288bc8f668b709ac5558b851cf54b113",
        "gas": "0x19adf",
        "value": "0x0",
        "input": "0x40c10f190000000000000000000000000350e6a031e9a11cf6bc725e8f36fd72b7a3b9810000000000000000000000000000000000000000000000056bc75e2d63100000",
        "nonce": "0xa2",
        "chainId": "0xaa36a7"
      },
      "additionalContracts": [],
      "isFixedGasLimit": false
    },
    {
      "hash": "0xf7482254ea1efc67d1761300b6bf578ea22e9fd755f24cee4b23e3828cca1a27",
      "transactionType": "CALL",
      "contractName": null,
      "contractAddress": "0x38c56c2e22d316249bdcf8c521fef65d5d8573b8",
      "function": "approve(address,uint256)",
      "arguments": [
        "0x3786c0952F33814A96F57a1Ee75c265E5F80e247",
        "50000000000"
      ],
      "transaction": {
        "from": "0x0350e6a031e9a11cf6bc725e8f36fd72b7a3b981",
        "to": "0x38c56c2e22d316249bdcf8c521fef65d5d8573b8",
        "gas": "0xfd6f",
        "value": "0x0",
        "input": "0x095ea7b30000000000000000000000003786c0952f33814a96f57a1ee75c265e5f80e2470000000000000000000000000000000000000000000000000000000ba43b7400",
        "nonce": "0xa3",
        "chainId": "0xaa36a7"
      },
      "additionalContracts": [],
      "isFixedGasLimit": false
    },
    {
      "hash": "0x9d6bc774dff1860500147434b06caeb75e991a762be5eafb26db685fa9c91331",
      "transactionType": "CALL",
      "contractName": "LendingPool",
      "contractAddress": "0x3786c0952f33814a96f57a1ee75c265e5f80e247",
      "function": "deposit(uint256)",
      "arguments": [
        "50000000000"
      ],
      "transaction": {
        "from": "0x0350e6a031e9a11cf6bc725e8f36fd72b7a3b981",
        "to": "0x3786c0952f33814a96f57a1ee75c265e5f80e247",
        "gas": "0x2c7ec",
        "value": "0x0",
        "input": "0xb6b55f250000000000000000000000000000000000000000000000000000000ba43b7400",
        "nonce": "0xa4",
        "chainId": "0xaa36a7"
      },
      "additionalContracts": [],
      "isFixedGasLimit": false
    },
    {
      "hash": "0x9a86ec3126242b869d441bbd0842f74d7f7cae5331fb196d2f369488cacf9627",
      "transactionType": "CALL",
      "contractName": null,
      "contractAddress": "0x7b2a668e288bc8f668b709ac5558b851cf54b113",
      "function": "approve(address,uint256)",
      "arguments": [
        "0x2175633Fd0bd9D172ee36A6755e8F6A99301a347",
        "10000000000000000000"
      ],
      "transaction": {
        "from": "0x0350e6a031e9a11cf6bc725e8f36fd72b7a3b981",
        "to": "0x7b2a668e288bc8f668b709ac5558b851cf54b113",
        "gas": "0xfd90",
        "value": "0x0",
        "input": "0x095ea7b30000000000000000000000002175633fd0bd9d172ee36a6755e8f6a99301a3470000000000000000000000000000000000000000000000008ac7230489e80000",
        "nonce": "0xa5",
        "chainId": "0xaa36a7"
      },
      "additionalContracts": [],
      "isFixedGasLimit": false
    },
    {
      "hash": "0xe41cade65fbcc90be965e2bd8c0aa396f4f27a8c39d1fa0a06d0986f82319f4d",
      "transactionType": "CALL",
      "contractName": "LendingPool",
      "contractAddress": "0x3786c0952f33814a96f57a1ee75c265e5f80e247",
      "function": "requestRepo(uint256,uint256)",
      "arguments": [
        "10000000000000000000",
        "5000000000"
      ],
      "transaction": {
        "from": "0x0350e6a031e9a11cf6bc725e8f36fd72b7a3b981",
        "to": "0x3786c0952f33814a96f57a1ee75c265e5f80e247",
        "gas": "0x88440",
        "value": "0x0",
        "input": "0xe4887b580000000000000000000000000000000000000000000000008ac7230489e80000000000000000000000000000000000000000000000000000000000012a05f200",
        "nonce": "0xa6",
        "chainId": "0xaa36a7"
      },
      "additionalContracts": [],
      "isFixedGasLimit": false
    }
  ],
  "receipts": [
    {
      "status": "0x1",
      "cumulativeGasUsed": "0x119cee3",
      "logs": [
        {
          "address": "0xacc9099c4e9f797f1b96559007bb2a0e0a20368a",
          "topics": [
            "0x945c1c4e99aa89f648fbfe3df471b916f719e16d960fcec0737d4d56bd696838"
          ],
          "data": "0x00000000000000000000000000000000000000000000000000000016d14154000000000000000000000000000000000000000000000000000000000069bc2698",
          "blockHash": "0x7389e19f2fc5c17e41687e641e418c206d5c5acf9985e3455597064029bc61fa",
          "blockNumber": "0x9fe1ba",
          "blockTimestamp": "0x69bc2698",
          "transactionHash": "0xd582aa3fa11ab84fc1092d53e594289758e4012590c29c5a800b9e39a6b6a1a4",
          "transactionIndex": "0x6c",
          "logIndex": "0x13d",
          "removed": false
        }
      ],
      "logsBloom": "0x00000010000000000000000000000000000000000000000000000000000000000000000000000000000000000000000000000000000000000000000000000000000000000000000040000000000000000000000000000000000000000000000000000000000000000000000000000000000000000000000010000000000000000000000000000000000000000000000040000000000000000000000000000000000000000000000000000000000000000000000002000000000000000000000000000000000000000000000000000000000000000000000000004000000000000000000000000000000000000000000000000000000000000000000000000000",
      "type": "0x2",
      "transactionHash": "0xd582aa3fa11ab84fc1092d53e594289758e4012590c29c5a800b9e39a6b6a1a4",
      "transactionIndex": "0x6c",
      "blockHash": "0x7389e19f2fc5c17e41687e641e418c206d5c5acf9985e3455597064029bc61fa",
      "blockNumber": "0x9fe1ba",
      "gasUsed": "0x7fb7",
      "effectiveGasPrice": "0xf424c",
      "from": "0x0350e6a031e9a11cf6bc725e8f36fd72b7a3b981",
      "to": "0xacc9099c4e9f797f1b96559007bb2a0e0a20368a",
      "contractAddress": null
    },
    {
      "status": "0x1",
      "cumulativeGasUsed": "0x11a46ec",
      "logs": [
        {
          "address": "0x7b2a668e288bc8f668b709ac5558b851cf54b113",
          "topics": [
            "0xc93dbb01ba50217e82ab5ba9468c3b231c601e65a967356ed4b71e5fac95ea79",
            "0x0000000000000000000000000350e6a031e9a11cf6bc725e8f36fd72b7a3b981"
          ],
          "data": "0x",
          "blockHash": "0x7389e19f2fc5c17e41687e641e418c206d5c5acf9985e3455597064029bc61fa",
          "blockNumber": "0x9fe1ba",
          "blockTimestamp": "0x69bc2698",
          "transactionHash": "0x71dc3515b3411e2d20540bcd0b3f94909cceac18bed4933d2111ac98489001e2",
          "transactionIndex": "0x6d",
          "logIndex": "0x13e",
          "removed": false
        }
      ],
      "logsBloom": "0x00000000000000000000000000000000000000000000000000000000002000000000000000000000000000000000000000000000000000000000000000020000000000000000000000000000000000000000000000000000000800000000000001000000000000000000000000000080000800000000000000000000000000000000000000000000000000000000000000000000000000000000000000000000000000000000000000000000000000000000000400000000000000000000000000000000000000000000000200000000000000000000000000000000000000000000000000000000000000000000020000000000000000000000000000000000",
      "type": "0x2",
      "transactionHash": "0x71dc3515b3411e2d20540bcd0b3f94909cceac18bed4933d2111ac98489001e2",
      "transactionIndex": "0x6d",
      "blockHash": "0x7389e19f2fc5c17e41687e641e418c206d5c5acf9985e3455597064029bc61fa",
      "blockNumber": "0x9fe1ba",
      "gasUsed": "0x7809",
      "effectiveGasPrice": "0xf424c",
      "from": "0x0350e6a031e9a11cf6bc725e8f36fd72b7a3b981",
      "to": "0x7b2a668e288bc8f668b709ac5558b851cf54b113",
      "contractAddress": null
    },
    {
      "status": "0x1",
      "cumulativeGasUsed": "0x11abef5",
      "logs": [
        {
          "address": "0x7b2a668e288bc8f668b709ac5558b851cf54b113",
          "topics": [
            "0xc93dbb01ba50217e82ab5ba9468c3b231c601e65a967356ed4b71e5fac95ea79",
            "0x0000000000000000000000003786c0952f33814a96f57a1ee75c265e5f80e247"
          ],
          "data": "0x",
          "blockHash": "0x7389e19f2fc5c17e41687e641e418c206d5c5acf9985e3455597064029bc61fa",
          "blockNumber": "0x9fe1ba",
          "blockTimestamp": "0x69bc2698",
          "transactionHash": "0x3a02133764e065d7a3379e38deede31fac1240927f130b441cf00d76c898e735",
          "transactionIndex": "0x6e",
          "logIndex": "0x13f",
          "removed": false
        }
      ],
      "logsBloom": "0x00000000000000000000000000000000000000000000000000000004002000000000000000000000000000000000000000000000000000000000000000020000000000000000000000000000000000000000000000000000000000000000000001000000004000000000000000000000000000000000000000000000000000000000000000000000000000000000000000000000000000000000000000080000000000000000000000000000000000000000000400000000000000000000000000000000000000000000000200000000000000000000000000000000000000000000000000000000000000000000020000000000000000000000000000000000",
      "type": "0x2",
      "transactionHash": "0x3a02133764e065d7a3379e38deede31fac1240927f130b441cf00d76c898e735",
      "transactionIndex": "0x6e",
      "blockHash": "0x7389e19f2fc5c17e41687e641e418c206d5c5acf9985e3455597064029bc61fa",
      "blockNumber": "0x9fe1ba",
      "gasUsed": "0x7809",
      "effectiveGasPrice": "0xf424c",
      "from": "0x0350e6a031e9a11cf6bc725e8f36fd72b7a3b981",
      "to": "0x7b2a668e288bc8f668b709ac5558b851cf54b113",
      "contractAddress": null
    },
    {
      "status": "0x1",
      "cumulativeGasUsed": "0x11b36fe",
      "logs": [
        {
          "address": "0x7b2a668e288bc8f668b709ac5558b851cf54b113",
          "topics": [
            "0xc93dbb01ba50217e82ab5ba9468c3b231c601e65a967356ed4b71e5fac95ea79",
            "0x0000000000000000000000002175633fd0bd9d172ee36a6755e8f6a99301a347"
          ],
          "data": "0x",
          "blockHash": "0x7389e19f2fc5c17e41687e641e418c206d5c5acf9985e3455597064029bc61fa",
          "blockNumber": "0x9fe1ba",
          "blockTimestamp": "0x69bc2698",
          "transactionHash": "0x375683be1213208ed580813e0cbe630438b163bcf0415e69fded78401adafedb",
          "transactionIndex": "0x6f",
          "logIndex": "0x140",
          "removed": false
        }
      ],
      "logsBloom": "0x00000000000000000000000000000000000000000000000000000000002000000000100000400000000000000000000000000000000000000000000000020000000000000000000000000000000000000000000000000000000000000000000001000000000000000000000000000000000000000000000000000000000000000000000000020000000000000000000000000000000000000000000000000000000000000000000000000000000000000000000400000000000000000000000000000000000000000000000200000000000000000000000000000000000000000000000000000000000000000000020000000000000000000000000000000000",
      "type": "0x2",
      "transactionHash": "0x375683be1213208ed580813e0cbe630438b163bcf0415e69fded78401adafedb",
      "transactionIndex": "0x6f",
      "blockHash": "0x7389e19f2fc5c17e41687e641e418c206d5c5acf9985e3455597064029bc61fa",
      "blockNumber": "0x9fe1ba",
      "gasUsed": "0x7809",
      "effectiveGasPrice": "0xf424c",
      "from": "0x0350e6a031e9a11cf6bc725e8f36fd72b7a3b981",
      "to": "0x7b2a668e288bc8f668b709ac5558b851cf54b113",
      "contractAddress": null
    },
    {
      "status": "0x1",
      "cumulativeGasUsed": "0x11baf07",
      "logs": [
        {
          "address": "0x7b2a668e288bc8f668b709ac5558b851cf54b113",
          "topics": [
            "0xc93dbb01ba50217e82ab5ba9468c3b231c601e65a967356ed4b71e5fac95ea79",
            "0x00000000000000000000000014038cb88dc2cb86a40e1f0b79e5898aaacc1935"
          ],
          "data": "0x",
          "blockHash": "0x7389e19f2fc5c17e41687e641e418c206d5c5acf9985e3455597064029bc61fa",
          "blockNumber": "0x9fe1ba",
          "blockTimestamp": "0x69bc2698",
          "transactionHash": "0x6cb7dd5fb5b949f9648ee0b458a235ab35d8e3c10bd84b698f8ff294c56754a9",
          "transactionIndex": "0x70",
          "logIndex": "0x141",
          "removed": false
        }
      ],
      "logsBloom": "0x00000000000000000000000000000000000000000000000000000000002000000000000000000000000000000000000000000010000000000000000000020000000000000000000000000000000000000000000000000000000000000000000001000000000000000000000000000000000000000000000000000000000000000000000000004000000000000000000000000000000000000000000000000000000000000000000000000000000000000000000400000000000000000000000000000000000000000000000200000000000000000000000000000000000000000000000000000000000000000000020000000000002000000000000000000000",
      "type": "0x2",
      "transactionHash": "0x6cb7dd5fb5b949f9648ee0b458a235ab35d8e3c10bd84b698f8ff294c56754a9",
      "transactionIndex": "0x70",
      "blockHash": "0x7389e19f2fc5c17e41687e641e418c206d5c5acf9985e3455597064029bc61fa",
      "blockNumber": "0x9fe1ba",
      "gasUsed": "0x7809",
      "effectiveGasPrice": "0xf424c",
      "from": "0x0350e6a031e9a11cf6bc725e8f36fd72b7a3b981",
      "to": "0x7b2a668e288bc8f668b709ac5558b851cf54b113",
      "contractAddress": null
    },
    {
      "status": "0x1",
      "cumulativeGasUsed": "0x11c2710",
      "logs": [
        {
          "address": "0x38c56c2e22d316249bdcf8c521fef65d5d8573b8",
          "topics": [
            "0xc93dbb01ba50217e82ab5ba9468c3b231c601e65a967356ed4b71e5fac95ea79",
            "0x0000000000000000000000000350e6a031e9a11cf6bc725e8f36fd72b7a3b981"
          ],
          "data": "0x",
          "blockHash": "0x7389e19f2fc5c17e41687e641e418c206d5c5acf9985e3455597064029bc61fa",
          "blockNumber": "0x9fe1ba",
          "blockTimestamp": "0x69bc2698",
          "transactionHash": "0x404185b5bf35ec0600863048be38d35ab82dac8b2d8cf5bd707b116c27e6231a",
          "transactionIndex": "0x71",
          "logIndex": "0x142",
          "removed": false
        }
      ],
      "logsBloom": "0x00000000000000000000000000000000000000000000000000000000002000000000000000000000000000000000000000000000000000000000000000000000000000000000000000000000000000000000000000000000000800000000000000000000000000000000000000000080000900000000000000000000000000000000000000000000000000000000000000000000000000000000000000000000000000000000000800000000000000000000000400000000000000000000000000004000000000000000000200000000000000000000000000000000000000000000000000000000000000000000000000000000000000000000000000000000",
      "type": "0x2",
      "transactionHash": "0x404185b5bf35ec0600863048be38d35ab82dac8b2d8cf5bd707b116c27e6231a",
      "transactionIndex": "0x71",
      "blockHash": "0x7389e19f2fc5c17e41687e641e418c206d5c5acf9985e3455597064029bc61fa",
      "blockNumber": "0x9fe1ba",
      "gasUsed": "0x7809",
      "effectiveGasPrice": "0xf424c",
      "from": "0x0350e6a031e9a11cf6bc725e8f36fd72b7a3b981",
      "to": "0x38c56c2e22d316249bdcf8c521fef65d5d8573b8",
      "contractAddress": null
    },
    {
      "status": "0x1",
      "cumulativeGasUsed": "0x11c9f19",
      "logs": [
        {
          "address": "0x38c56c2e22d316249bdcf8c521fef65d5d8573b8",
          "topics": [
            "0xc93dbb01ba50217e82ab5ba9468c3b231c601e65a967356ed4b71e5fac95ea79",
            "0x0000000000000000000000003786c0952f33814a96f57a1ee75c265e5f80e247"
          ],
          "data": "0x",
          "blockHash": "0x7389e19f2fc5c17e41687e641e418c206d5c5acf9985e3455597064029bc61fa",
          "blockNumber": "0x9fe1ba",
          "blockTimestamp": "0x69bc2698",
          "transactionHash": "0x78a1fe73d04af32efc73e93db8ec27a32a7420e03679148ddf9fad113d2ad14a",
          "transactionIndex": "0x72",
          "logIndex": "0x143",
          "removed": false
        }
      ],
      "logsBloom": "0x00000000000000000000000000000000000000000000000000000004002000000000000000000000000000000000000000000000000000000000000000000000000000000000000000000000000000000000000000000000000000000000000000000000004000000000000000000000000100000000000000000000000000000000000000000000000000000000000000000000000000000000000000080000000000000000000800000000000000000000000400000000000000000000000000004000000000000000000200000000000000000000000000000000000000000000000000000000000000000000000000000000000000000000000000000000",
      "type": "0x2",
      "transactionHash": "0x78a1fe73d04af32efc73e93db8ec27a32a7420e03679148ddf9fad113d2ad14a",
      "transactionIndex": "0x72",
      "blockHash": "0x7389e19f2fc5c17e41687e641e418c206d5c5acf9985e3455597064029bc61fa",
      "blockNumber": "0x9fe1ba",
      "gasUsed": "0x7809",
      "effectiveGasPrice": "0xf424c",
      "from": "0x0350e6a031e9a11cf6bc725e8f36fd72b7a3b981",
      "to": "0x38c56c2e22d316249bdcf8c521fef65d5d8573b8",
      "contractAddress": null
    },
    {
      "status": "0x1",
      "cumulativeGasUsed": "0x11d1722",
      "logs": [
        {
          "address": "0x38c56c2e22d316249bdcf8c521fef65d5d8573b8",
          "topics": [
            "0xc93dbb01ba50217e82ab5ba9468c3b231c601e65a967356ed4b71e5fac95ea79",
            "0x0000000000000000000000002175633fd0bd9d172ee36a6755e8f6a99301a347"
          ],
          "data": "0x",
          "blockHash": "0x7389e19f2fc5c17e41687e641e418c206d5c5acf9985e3455597064029bc61fa",
          "blockNumber": "0x9fe1ba",
          "blockTimestamp": "0x69bc2698",
          "transactionHash": "0x45d88ed5a455938c3bcde454263e0e72c5ca1eedf7ac5b8333389c7122ca270d",
          "transactionIndex": "0x73",
          "logIndex": "0x144",
          "removed": false
        }
      ],
      "logsBloom": "0x00000000000000000000000000000000000000000000000000000000002000000000100000400000000000000000000000000000000000000000000000000000000000000000000000000000000000000000000000000000000000000000000000000000000000000000000000000000000100000000000000000000000000000000000000020000000000000000000000000000000000000000000000000000000000000000000800000000000000000000000400000000000000000000000000004000000000000000000200000000000000000000000000000000000000000000000000000000000000000000000000000000000000000000000000000000",
      "type": "0x2",
      "transactionHash": "0x45d88ed5a455938c3bcde454263e0e72c5ca1eedf7ac5b8333389c7122ca270d",
      "transactionIndex": "0x73",
      "blockHash": "0x7389e19f2fc5c17e41687e641e418c206d5c5acf9985e3455597064029bc61fa",
      "blockNumber": "0x9fe1ba",
      "gasUsed": "0x7809",
      "effectiveGasPrice": "0xf424c",
      "from": "0x0350e6a031e9a11cf6bc725e8f36fd72b7a3b981",
      "to": "0x38c56c2e22d316249bdcf8c521fef65d5d8573b8",
      "contractAddress": null
    },
    {
      "status": "0x1",
      "cumulativeGasUsed": "0x11d8f2b",
      "logs": [
        {
          "address": "0x38c56c2e22d316249bdcf8c521fef65d5d8573b8",
          "topics": [
            "0xc93dbb01ba50217e82ab5ba9468c3b231c601e65a967356ed4b71e5fac95ea79",
            "0x00000000000000000000000014038cb88dc2cb86a40e1f0b79e5898aaacc1935"
          ],
          "data": "0x",
          "blockHash": "0x7389e19f2fc5c17e41687e641e418c206d5c5acf9985e3455597064029bc61fa",
          "blockNumber": "0x9fe1ba",
          "blockTimestamp": "0x69bc2698",
          "transactionHash": "0xbf845459af7f99eefba7448c033287278f3667cdff902d36fe58abe6d7457c15",
          "transactionIndex": "0x74",
          "logIndex": "0x145",
          "removed": false
        }
      ],
      "logsBloom": "0x00000000000000000000000000000000000000000000000000000000002000000000000000000000000000000000000000000010000000000000000000000000000000000000000000000000000000000000000000000000000000000000000000000000000000000000000000000000000100000000000000000000000000000000000000004000000000000000000000000000000000000000000000000000000000000000000800000000000000000000000400000000000000000000000000004000000000000000000200000000000000000000000000000000000000000000000000000000000000000000000000000000002000000000000000000000",
      "type": "0x2",
      "transactionHash": "0xbf845459af7f99eefba7448c033287278f3667cdff902d36fe58abe6d7457c15",
      "transactionIndex": "0x74",
      "blockHash": "0x7389e19f2fc5c17e41687e641e418c206d5c5acf9985e3455597064029bc61fa",
      "blockNumber": "0x9fe1ba",
      "gasUsed": "0x7809",
      "effectiveGasPrice": "0xf424c",
      "from": "0x0350e6a031e9a11cf6bc725e8f36fd72b7a3b981",
      "to": "0x38c56c2e22d316249bdcf8c521fef65d5d8573b8",
      "contractAddress": null
    },
    {
      "status": "0x1",
      "cumulativeGasUsed": "0x823c35",
      "logs": [
        {
          "address": "0x38c56c2e22d316249bdcf8c521fef65d5d8573b8",
          "topics": [
            "0xddf252ad1be2c89b69c2b068fc378daa952ba7f163c4a11628f55a4df523b3ef",
            "0x0000000000000000000000000000000000000000000000000000000000000000",
            "0x0000000000000000000000000350e6a031e9a11cf6bc725e8f36fd72b7a3b981"
          ],
          "data": "0x000000000000000000000000000000000000000000000000000000174876e800",
          "blockHash": "0xc43dbb5b027355d6a4914d1eefd216b1297a6b0547d9190ee80d83a1d2d7b86d",
          "blockNumber": "0x9fe1bb",
          "blockTimestamp": "0x69bc26a4",
          "transactionHash": "0x7b599288ba60b131b089aa1395164da92a364a59f904a4438dd2aa008a9f4bed",
          "transactionIndex": "0x4f",
          "logIndex": "0xf2",
          "removed": false
        }
      ],
      "logsBloom": "0x00000000000000000000000000000000000000000000000000000000000000000000000000000000000000000000000000000000000000000000000000000000000000000000000000000008000000000000000000000000000800000000000000000000020000000000000000000880000900000000000000000010000000000000000000000000000000000000000000000000000000000000000000000000000000000000000800000000000000000000000000000000000000000000000000004002000000000000000000000000000000000000000000000000000020000000000000000000000000000000000000000000000000000000000000000000",
      "type": "0x2",
      "transactionHash": "0x7b599288ba60b131b089aa1395164da92a364a59f904a4438dd2aa008a9f4bed",
      "transactionIndex": "0x4f",
      "blockHash": "0xc43dbb5b027355d6a4914d1eefd216b1297a6b0547d9190ee80d83a1d2d7b86d",
      "blockNumber": "0x9fe1bb",
      "gasUsed": "0x12953",
      "effectiveGasPrice": "0xf424c",
      "from": "0x0350e6a031e9a11cf6bc725e8f36fd72b7a3b981",
      "to": "0x38c56c2e22d316249bdcf8c521fef65d5d8573b8",
      "contractAddress": null
    },
    {
      "status": "0x1",
      "cumulativeGasUsed": "0x8365ac",
      "logs": [
        {
          "address": "0x7b2a668e288bc8f668b709ac5558b851cf54b113",
          "topics": [
            "0xddf252ad1be2c89b69c2b068fc378daa952ba7f163c4a11628f55a4df523b3ef",
            "0x0000000000000000000000000000000000000000000000000000000000000000",
            "0x0000000000000000000000000350e6a031e9a11cf6bc725e8f36fd72b7a3b981"
          ],
          "data": "0x0000000000000000000000000000000000000000000000056bc75e2d63100000",
          "blockHash": "0xc43dbb5b027355d6a4914d1eefd216b1297a6b0547d9190ee80d83a1d2d7b86d",
          "blockNumber": "0x9fe1bb",
          "blockTimestamp": "0x69bc26a4",
          "transactionHash": "0xfcc708371c089c5ac3410cae6fe07cbd6c6ba743a617a48db2953d2efd5dbb1b",
          "transactionIndex": "0x50",
          "logIndex": "0xf3",
          "removed": false
        }
      ],
      "logsBloom": "0x00000000000000000000000000000000000000000000000000000000000000000000000000000000000000000000000000000000000000000000000000020000000000000000000000000008000000000000000000000000000800000000000001000000020000000000000000000880000800000000000000000010000000000000000000000000000000000000000000000000000000000000000000000000000000000000000000000000000000000000000000000000000000000000000000000002000000000000000000000000000000000000000000000000000020000000000000000000000000000000020000000000000000000000000000000000",
      "type": "0x2",
      "transactionHash": "0xfcc708371c089c5ac3410cae6fe07cbd6c6ba743a617a48db2953d2efd5dbb1b",
      "transactionIndex": "0x50",
      "blockHash": "0xc43dbb5b027355d6a4914d1eefd216b1297a6b0547d9190ee80d83a1d2d7b86d",
      "blockNumber": "0x9fe1bb",
      "gasUsed": "0x12977",
      "effectiveGasPrice": "0xf424c",
      "from": "0x0350e6a031e9a11cf6bc725e8f36fd72b7a3b981",
      "to": "0x7b2a668e288bc8f668b709ac5558b851cf54b113",
      "contractAddress": null
    },
    {
      "status": "0x1",
      "cumulativeGasUsed": "0x841d28",
      "logs": [
        {
          "address": "0x38c56c2e22d316249bdcf8c521fef65d5d8573b8",
          "topics": [
            "0x8c5be1e5ebec7d5bd14f71427d1e84f3dd0314c0f7b2291e5b200ac8c7c3b925",
            "0x0000000000000000000000000350e6a031e9a11cf6bc725e8f36fd72b7a3b981",
            "0x0000000000000000000000003786c0952f33814a96f57a1ee75c265e5f80e247"
          ],
          "data": "0x0000000000000000000000000000000000000000000000000000000ba43b7400",
          "blockHash": "0xc43dbb5b027355d6a4914d1eefd216b1297a6b0547d9190ee80d83a1d2d7b86d",
          "blockNumber": "0x9fe1bb",
          "blockTimestamp": "0x69bc26a4",
          "transactionHash": "0xf7482254ea1efc67d1761300b6bf578ea22e9fd755f24cee4b23e3828cca1a27",
          "transactionIndex": "0x51",
          "logIndex": "0xf4",
          "removed": false
        }
      ],
      "logsBloom": "0x00000000000000000000000000000000000000000000000000000004000000000000000000000000000000000000000000000000000000000000000000200000000000000000000000000000000000000000000000000000000800000000000000000000004000000000000000000080000900000000000000000000000000000000000000000000000000000000000000000000000000000000000000080000020000000000000800000000000000000000000000000000000000000000000000004000000000000000000000000000000000000000000000000000000000000010000000000000000000000000000000000000000000000000000000000000",
      "type": "0x2",
      "transactionHash": "0xf7482254ea1efc67d1761300b6bf578ea22e9fd755f24cee4b23e3828cca1a27",
      "transactionIndex": "0x51",
      "blockHash": "0xc43dbb5b027355d6a4914d1eefd216b1297a6b0547d9190ee80d83a1d2d7b86d",
      "blockNumber": "0x9fe1bb",
      "gasUsed": "0xb77c",
      "effectiveGasPrice": "0xf424c",
      "from": "0x0350e6a031e9a11cf6bc725e8f36fd72b7a3b981",
      "to": "0x38c56c2e22d316249bdcf8c521fef65d5d8573b8",
      "contractAddress": null
    },
    {
      "status": "0x1",
      "cumulativeGasUsed": "0x8603f1",
      "logs": [
        {
          "address": "0x38c56c2e22d316249bdcf8c521fef65d5d8573b8",
          "topics": [
            "0xddf252ad1be2c89b69c2b068fc378daa952ba7f163c4a11628f55a4df523b3ef",
            "0x0000000000000000000000000350e6a031e9a11cf6bc725e8f36fd72b7a3b981",
            "0x0000000000000000000000003786c0952f33814a96f57a1ee75c265e5f80e247"
          ],
          "data": "0x0000000000000000000000000000000000000000000000000000000ba43b7400",
          "blockHash": "0xc43dbb5b027355d6a4914d1eefd216b1297a6b0547d9190ee80d83a1d2d7b86d",
          "blockNumber": "0x9fe1bb",
          "blockTimestamp": "0x69bc26a4",
          "transactionHash": "0x9d6bc774dff1860500147434b06caeb75e991a762be5eafb26db685fa9c91331",
          "transactionIndex": "0x52",
          "logIndex": "0xf5",
          "removed": false
        },
        {
          "address": "0x90e48c8116b69da6a2f353940a85829c3997ad65",
          "topics": [
            "0xddf252ad1be2c89b69c2b068fc378daa952ba7f163c4a11628f55a4df523b3ef",
            "0x0000000000000000000000000000000000000000000000000000000000000000",
            "0x0000000000000000000000000350e6a031e9a11cf6bc725e8f36fd72b7a3b981"
          ],
          "data": "0x0000000000000000000000000000000000000000000000000000000ba43b7400",
          "blockHash": "0xc43dbb5b027355d6a4914d1eefd216b1297a6b0547d9190ee80d83a1d2d7b86d",
          "blockNumber": "0x9fe1bb",
          "blockTimestamp": "0x69bc26a4",
          "transactionHash": "0x9d6bc774dff1860500147434b06caeb75e991a762be5eafb26db685fa9c91331",
          "transactionIndex": "0x52",
          "logIndex": "0xf6",
          "removed": false
        },
        {
          "address": "0x3786c0952f33814a96f57a1ee75c265e5f80e247",
          "topics": [
            "0x73a19dd210f1a7f902193214c0ee91dd35ee5b4d920cba8d519eca65a7b488ca",
            "0x0000000000000000000000000350e6a031e9a11cf6bc725e8f36fd72b7a3b981"
          ],
          "data": "0x0000000000000000000000000000000000000000000000000000000ba43b74000000000000000000000000000000000000000000000000000000000ba43b7400",
          "blockHash": "0xc43dbb5b027355d6a4914d1eefd216b1297a6b0547d9190ee80d83a1d2d7b86d",
          "blockNumber": "0x9fe1bb",
          "blockTimestamp": "0x69bc26a4",
          "transactionHash": "0x9d6bc774dff1860500147434b06caeb75e991a762be5eafb26db685fa9c91331",
          "transactionIndex": "0x52",
          "logIndex": "0xf7",
          "removed": false
        }
      ],
      "logsBloom": "0x00000000000000000000000000000000000000000000000000000004000000000000000000000000000900000000000000000000000000000000000000000000000000000000000000000008000000004000000000000000000800000000000000000000024020000000000000000880000900000000000000000010000000000000000000000000000000000000000000000000000000800000000000080000000000000000000800000000040000002000000000000000000000000000000000004002000000000000000000000000000000000000000000000000000020000000000000000000000000000000000000000008000000000000000000000040",
      "type": "0x2",
      "transactionHash": "0x9d6bc774dff1860500147434b06caeb75e991a762be5eafb26db685fa9c91331",
      "transactionIndex": "0x52",
      "blockHash": "0xc43dbb5b027355d6a4914d1eefd216b1297a6b0547d9190ee80d83a1d2d7b86d",
      "blockNumber": "0x9fe1bb",
      "gasUsed": "0x1e6c9",
      "effectiveGasPrice": "0xf424c",
      "from": "0x0350e6a031e9a11cf6bc725e8f36fd72b7a3b981",
      "to": "0x3786c0952f33814a96f57a1ee75c265e5f80e247",
      "contractAddress": null
    },
    {
      "status": "0x1",
      "cumulativeGasUsed": "0x86bb85",
      "logs": [
        {
          "address": "0x7b2a668e288bc8f668b709ac5558b851cf54b113",
          "topics": [
            "0x8c5be1e5ebec7d5bd14f71427d1e84f3dd0314c0f7b2291e5b200ac8c7c3b925",
            "0x0000000000000000000000000350e6a031e9a11cf6bc725e8f36fd72b7a3b981",
            "0x0000000000000000000000002175633fd0bd9d172ee36a6755e8f6a99301a347"
          ],
          "data": "0x0000000000000000000000000000000000000000000000008ac7230489e80000",
          "blockHash": "0xc43dbb5b027355d6a4914d1eefd216b1297a6b0547d9190ee80d83a1d2d7b86d",
          "blockNumber": "0x9fe1bb",
          "blockTimestamp": "0x69bc26a4",
          "transactionHash": "0x9a86ec3126242b869d441bbd0842f74d7f7cae5331fb196d2f369488cacf9627",
          "transactionIndex": "0x53",
          "logIndex": "0xf8",
          "removed": false
        }
      ],
      "logsBloom": "0x00000000000000000000000000000000000000000000000000000000000000000000100000400000000000000000000000000000000000000000000000220000000000000000000000000000000000000000000000000000000800000000000001000000000000000000000000000080000800000000000000000000000000000000000000020000000000000000000000000000000000000000000000000000020000000000000000000000000000000000000000000000000000000000000000000000000000000000000000000000000000000000000000000000000000000010000000000000000000000000020000000000000000000000000000000000",
      "type": "0x2",
      "transactionHash": "0x9a86ec3126242b869d441bbd0842f74d7f7cae5331fb196d2f369488cacf9627",
      "transactionIndex": "0x53",
      "blockHash": "0xc43dbb5b027355d6a4914d1eefd216b1297a6b0547d9190ee80d83a1d2d7b86d",
      "blockNumber": "0x9fe1bb",
      "gasUsed": "0xb794",
      "effectiveGasPrice": "0xf424c",
      "from": "0x0350e6a031e9a11cf6bc725e8f36fd72b7a3b981",
      "to": "0x7b2a668e288bc8f668b709ac5558b851cf54b113",
      "contractAddress": null
    },
    {
      "status": "0x1",
      "cumulativeGasUsed": "0x8ce5fc",
      "logs": [
        {
          "address": "0x38c56c2e22d316249bdcf8c521fef65d5d8573b8",
          "topics": [
            "0xddf252ad1be2c89b69c2b068fc378daa952ba7f163c4a11628f55a4df523b3ef",
            "0x0000000000000000000000003786c0952f33814a96f57a1ee75c265e5f80e247",
            "0x0000000000000000000000000350e6a031e9a11cf6bc725e8f36fd72b7a3b981"
          ],
          "data": "0x000000000000000000000000000000000000000000000000000000012a05f200",
          "blockHash": "0xc43dbb5b027355d6a4914d1eefd216b1297a6b0547d9190ee80d83a1d2d7b86d",
          "blockNumber": "0x9fe1bb",
          "blockTimestamp": "0x69bc26a4",
          "transactionHash": "0xe41cade65fbcc90be965e2bd8c0aa396f4f27a8c39d1fa0a06d0986f82319f4d",
          "transactionIndex": "0x54",
          "logIndex": "0xf9",
          "removed": false
        },
        {
          "address": "0x7b2a668e288bc8f668b709ac5558b851cf54b113",
          "topics": [
            "0xddf252ad1be2c89b69c2b068fc378daa952ba7f163c4a11628f55a4df523b3ef",
            "0x0000000000000000000000000350e6a031e9a11cf6bc725e8f36fd72b7a3b981",
            "0x0000000000000000000000002175633fd0bd9d172ee36a6755e8f6a99301a347"
          ],
          "data": "0x0000000000000000000000000000000000000000000000008ac7230489e80000",
          "blockHash": "0xc43dbb5b027355d6a4914d1eefd216b1297a6b0547d9190ee80d83a1d2d7b86d",
          "blockNumber": "0x9fe1bb",
          "blockTimestamp": "0x69bc26a4",
          "transactionHash": "0xe41cade65fbcc90be965e2bd8c0aa396f4f27a8c39d1fa0a06d0986f82319f4d",
          "transactionIndex": "0x54",
          "logIndex": "0xfa",
          "removed": false
        },
        {
          "address": "0x2175633fd0bd9d172ee36a6755e8f6a99301a347",
          "topics": [
            "0x83cc5d6710eec71c83905d0484baf0554034dd6ad21003149dcba8a8a87c6db9",
            "0x0000000000000000000000000000000000000000000000000000000000000000",
            "0x0000000000000000000000000350e6a031e9a11cf6bc725e8f36fd72b7a3b981"
          ],
          "data": "0x0000000000000000000000000000000000000000000000008ac7230489e80000000000000000000000000000000000000000000000000000000000012a05f2000000000000000000000000000000000000000000000000000000000069c56124",
          "blockHash": "0xc43dbb5b027355d6a4914d1eefd216b1297a6b0547d9190ee80d83a1d2d7b86d",
          "blockNumber": "0x9fe1bb",
          "blockTimestamp": "0x69bc26a4",
          "transactionHash": "0xe41cade65fbcc90be965e2bd8c0aa396f4f27a8c39d1fa0a06d0986f82319f4d",
          "transactionIndex": "0x54",
          "logIndex": "0xfb",
          "removed": false
        },
        {
          "address": "0x3786c0952f33814a96f57a1ee75c265e5f80e247",
          "topics": [
            "0x1c793c0fda4a6b2b79dd68d91d9f7fde8f7aa0878615c36a4624e6ccdbb1ead1",
            "0x0000000000000000000000000350e6a031e9a11cf6bc725e8f36fd72b7a3b981",
            "0x0000000000000000000000000000000000000000000000000000000000000000"
          ],
          "data": "0x000000000000000000000000000000000000000000000000000000012a05f200",
          "blockHash": "0xc43dbb5b027355d6a4914d1eefd216b1297a6b0547d9190ee80d83a1d2d7b86d",
          "blockNumber": "0x9fe1bb",
          "blockTimestamp": "0x69bc26a4",
          "transactionHash": "0xe41cade65fbcc90be965e2bd8c0aa396f4f27a8c39d1fa0a06d0986f82319f4d",
          "transactionIndex": "0x54",
          "logIndex": "0xfc",
          "removed": false
        }
      ],
      "logsBloom": "0x00000000000000000000000000000200000000000000000000000404000000000000100000400000000000000000000000000000000000000000000000020000000000000000000000000008000000000000000000000000000a00000000000001000000024020000000000000000880000900000000000000000010100000000000000000020000000000000000000000000000000000000000000000080000000000000000000800000000040100000000000000000000020004000000000100004002000000000000400000000000000000000000000000000000000020000000000000000000000000000000020000000000000000000000000000000040",
      "type": "0x2",
      "transactionHash": "0xe41cade65fbcc90be965e2bd8c0aa396f4f27a8c39d1fa0a06d0986f82319f4d",
      "transactionIndex": "0x54",
      "blockHash": "0xc43dbb5b027355d6a4914d1eefd216b1297a6b0547d9190ee80d83a1d2d7b86d",
      "blockNumber": "0x9fe1bb",
      "gasUsed": "0x62a77",
      "effectiveGasPrice": "0xf424c",
      "from": "0x0350e6a031e9a11cf6bc725e8f36fd72b7a3b981",
      "to": "0x3786c0952f33814a96f57a1ee75c265e5f80e247",
      "contractAddress": null
    }
  ],
  "libraries": [],
  "pending": [],
  "returns": {},
  "timestamp": 1773938340566,
  "chain": 11155111,
  "commit": "41079c6"
}